:100000000C942A000C94B1010C94B1010C94B10130
:100010000C94B1010C94B1010C94B1010C94B10198
:100020000C94B1010C94B1010C94B1010C94B10188
:100030000C94B1010C94B1010C94B1010C94B10178
:100040000C94B1010C94B1010C94B1010C94B10168
:100050000C94B10111241FBECFE5D8E0DEBFCDBFA7
:0C0060000E9453000C94A601F894FFCFFE
:10006C00456E7465722070617373776F726400569D
:10007C00414C49442050415353574F524400494E30
:10008C00434F525245542050415353574F52440002
:0A009C0031323334003030303000D0
:1000A600EF92FF920F931F93CF93DF93CDB7DEB7F7
:1000B6002A970FB6F894DEBF0FBECDBF2CE930E00D
:1000C60040E085E0F901DE011196742F0E94990146
:1000D60021EA30E040E085E0F901DE011696742F52
:1000E6000E9499018FEF81BB84BB87BB8FE08ABBDF
:1000F60088E390E00E94880180E890E00E948801F1
:1001060081E090E00E94880186E090E00E948801EC
:100116008EE090E00E9488016CE670E080E00E942C
:10012600570180EC90E00E9488018E010A5F1F4F04
:100136007E012AE0E20EF11C0E940101F801819382
:100146008F010E9472010E151F05B1F79E818981EC
:1001560098133EC0DE011796FE01329681E02D917E
:100166009191291304C08F5F8430C9F702C084308F
:1001760079F581E090E00E9488016BE770E080E00D
:100186000E94570182E088BBFFE724E88EE1F15028
:1001960020408040E1F700C0000018BA0AE010E0F5
:1001A600E7EAF1E63197F1F700C0000088E090E059
:1001B6000E94880187EA91E60197F1F700C00000E6
:1001C6008EE090E00E9488010150110949F709C0AC
:1001D60081E090E00E9488016AE870E080E00E9479
:1001E60057012A960FB6F894DEBF0FBECDBFDF913A
:0C01F600CF911F910F91FF90EF900895A2
:100202000F931F93CF93DF93CEE0DDE01BE007E077
:10021200CBBBCF9B2BC0CE9904C089E30E94720155
:1002220004C0CD9B25C0CC9B25C0DBBBCF9B24C08B
:10023200CE9B24C0CD9B24C0CC9B24C01BBBCF9B98
:1002420023C0CE9B23C0CD9B23C0CC9B23C00BBB22
:1002520089B3887809F189B3887401F189B3887206
:10026200F9F089B38871A1F68AE21BC080E319C054
:1002720088E317C087E315C084E313C086E311C087
:1002820085E30FC084E30DC088E30BC083E309C09C
:1002920082E307C081E305C083E403C083E201C0B7
:0C02A20080E3DF91CF911F910F91089530
:1002AE00CF92DF92EF926B01E82EFB018491E7FC77
:1002BE008081882361F00E9472018FEFC81AD80ADC
:1002CE00E80AF6018491E7FC80818111F4CFEF906A
:0602DE00DF90CF900895AF
:1002E40082BB83E085BB89EF90E00197F1F700C002
:1002F400000081E085BB8DEE92E00197F1F700C02C
:0C030400000089B3807F803FE1F708957E
:1003100082BB82E085BB89EF90E00197F1F700C0D6
:10032000000015BA8DEE92E00197F1F700C00000D1
:0203300008952E
:10033200992777FD05C005900D920197E1F7089581
:0A03420001900D920197E1F7089574
:10034C00EC010E94B6010E94B501CE010E94B701DA
:06035C00CE010E94B30176
:040362000C940000F7
:040366000E943400BD
:02036A000895F4
:02036C000895F2
:02036E000895F0
:00000001FF
